:020000040800F2
:1000000098070020252D0008D50A0008D70A000807
:10001000DB0A0008DF0A0008E30A0008000000000D
:10002000000000000000000000000000E70A0008D7
:10003000E90A000800000000EB0A0008ED0A0008C9
:100040003F2D00083F2D00083F2D00083F2D0008E0
:100050003F2D00083F2D00083F2D00083F2D0008D0
:100060003F2D00083F2D00083F2D00083F2D0008C0
:100070003F2D00083F2D00083F2D00083F2D0008B0
:100080003F2D00083F2D00083F2D00083F2D0008A0
:100090003F2D00083F2D00083F2D00083F2D000890
:1000A0003F2D00083F2D00083F2D00083F2D000880
:1000B0006F0900083F2D00083F2D00083F2D000864
:1000C0003F2D00083F2D00083F2D00083F2D000860
:1000D0003F2D0008F50B0008410900083F2D0008DE
:1000E0003F2D00083F2D00083F2D000800F002F8CA
:1000F00000F090F80AA090E8000C82448344AAF132
:100100000107DA4501D100F085F8AFF2090EBAE82F
:100110000F0013F0010F18BFFB1A43F0010318473B
:10012000B4500000D4500000103A24BF78C878C101
:10013000FAD8520724BF30C830C144BF04680C60ED
:10014000704700000023002400250026103A28BF35
:1001500078C1FBD8520728BF30C148BF0B60704739
:100160006E2903F0D486702903F04184662904F0D7
:100170009787652904F09487672904F0918761299E
:10018000AFF3008003681B0A28BF41F08001692992
:1001900003F0B483642903F0B183752903F0AE83BF
:1001A0006F2904F0C381782903F00D84E92904F054
:1001B0005F81E42904F05C81F52904F05981EF297D
:1001C00004F0C081F82903F00C840368DB0928BF20
:1001D00041F08001632904F0E080732904F0E58098
:1001E000E32904F05182F32904F05682002070477D
:1001F0001FB504F0B5F904000020002104F024FF2D
:10020000401C60600020002104F034FFE0601FBD4E
:1002100010B510BD04F0D1FA1146FFF7E9FF00F068
:1002200028F904F0EFFA03B4FFF7F2FF03BC04F07F
:100230002FFB0000F0B58FB005460E46174615207F
:10024000FE4908801A208DF8380000208DF839000A
:1002500001230322FAA1FDA000F055FD0446012C64
:100260001FD101230322FDA1FDA000F04CFD044697
:100270001CB96FF00D000FB0F0BD3946304600F0EC
:1002800022FD022000F0FFFE01230422F7A10EA8A8
:1002900000F05CFD044614B96FF00800EBE70120A4
:1002A000E9E701230222E8A1F2A000F02CFD0446B8
:1002B00014B96FF00A00DEE701230222E2A1F0A0E8
:1002C00000F021FD044614B96FF03100D3E7382166
:1002D000684603F07EFDEEA1684603F069FC2946FE
:1002E000684603F0F3FC01230422D5A1684600F020
:1002F0000AFD044614B96FF00C00BCE70123032289
:10030000D6A1D7A000F0FFFC044614B96FF00D0091
:10031000B1E73946304600F0D6FC022000F0B3FECB
:1003200001230422D1A10EA800F010FD044614B947
:100330006FF008009FE701209DE770B505460C4669
:10034000D848BE4A128881182246284603F0CAFCC3
:10035000BA4800882044B9490880204670BD002072
:1003600004E00021CF4A1154411C88B2FF28F8DD77
:100370000021CD4A118070472DE9F0410546002744
:10038000FFF7EDFF3CE0C9A000F0B2FC022000F056
:100390007AFE00242CE0C348005D2B2826D1C149F9
:1003A000601C085C432821D1A01C085C52281DD188
:1003B000E01C085C452819D1201D085C472815D190
:1003C000601D085C3A2811D1E01D085C31280DD170
:1003D00004F10900085C312804D004F10900085C2C
:1003E000352803D101270120BDE8F081601C84B2CB
:1003F000FF2CD0DD701CC6B2AE4201DD0020F3E759
:10040000002FC0D00020EFE738B51B208DF800008A
:1004100000208DF80100012305228BA1A6A000F089
:1004200072FC04462CB9684600F03AFC4FF0FF30ED
:1004300038BD01230222A1A1A2A000F064FC044661
:1004400014B96FF00100F3E70320FFF795FF0446AE
:1004500014B96FF00200EBE7012302227AA19CA0FD
:1004600000F051FC044614B96FF03200E0E70120BF
:10047000DEE72DE9F04FEDB00025052696A73846BA
:1004800003F0BAFB81460024A046002029904FF0DB
:10049000010A4FF0010B2490259026905822914993
:1004A0000EA803F064FC00F0A5FD00F01CFD00F0B8
:1004B00071FC4FF4E13000F09EFB00F015FE4FF4AC
:1004C000E13000F017FB88A000F067FB0A2000F085
:1004D000DAFD8EA011901420ADF8500001208DF8A7
:1004E00052008BA01E908DA021900EAA4FF4807117
:1004F0002CA802F072FC804641468CA000F060FB04
:1005000042462CA98DA0FFF795FE0446012C07D08A
:10051000214690A000F054FB681E6DB0BDE8F08F3E
:10052000AFF2E9124FF480712CA802F034FF0228D8
:1005300005D093A000F044FB4FF0FF30EDE74FF4FF
:1005400080732CAA2AA92BA802F0F2FC012802D160
:100550009DF8A80038B19DF8A81090A000F030FBDD
:100560004FF0FF30D9E796A0249029A824A90122B2
:100570001FFA8AF3CDE90021029000224FF4807126
:100580002CA803F0B7F88046414690A000F018FB75
:1005900042462CA969A0FFF74DFE0446012C06D067
:1005A00021468EA000F00CFB4FF0FF30B5E7AFF214
:1005B00075224FF480712CA802F0EDFE092805D0B9
:1005C00091A000F0FDFA4FF0FF30A6E74FF48070E5
:1005D0002CA928AB27AACDE9001001216CA803F0B3
:1005E000E1F8289830B18FA0289900F0E9FA4FF08F
:1005F000FF3092E791A0249082E100F0FBFB0546DA
:10060000294691A000F0DCFA202D04D192A000F040
:10061000D7FA4FF0000BAFF2DD224FF480712CA817
:1006200002F0B9FE032807D14FF480702CA90CAA60
:1006300008ABCDE901321FE12EE1000002000020ED
:10064000434F4E4E454354204F4B000041542B43E3
:100650004950535441545553000000003E000000DF
:1006600041542B43495053454E44000053454E449A
:10067000204F4B0041542B43474154543D3100001F
:1006800041542B43474143543D312C31000000007D
:1006900041542B43495053544152543D22544350EA
:1006A000222C0000380000200000002041542B4381
:1006B0005245473F0000000041540000524541446C
:1006C0005900000041542B4350494E3F00000000A8
:1006D00041544530000000006D797061796C6F61A4
:1006E00064000000A4500008CFB5CDB3C6F4B6AF87
:1006F0002E2E2E2E2E2E2E2E2E2E2E2E2E2E2E2E1A
:100700002E2E2E2E2E2E2E0D0A0000006D650000BE
:10071000746573747573657200000000746573749A
:1007200070617373776F7264000000003131313192
:10073000206C656E2025640A0000000022323131F1
:100740002E3134392E3231372E33222C3138383392
:100750000000000031313131207472616E73706FAE
:1007600072745F73656E645061636B657442756625
:10077000666572204572726F722025640A0000005F
:100780004D5154545061636B65745F7265616420B0
:10079000213D20434F4E4E41434B0A00556E61624E
:1007A0006C6520746F20636F6E6E6563742C2072AD
:1007B000657475726E20636F64652025640A00009D
:1007C00073756273746F7069630000003232323285
:1007D000206C656E2025640A00000000323232323F
:1007E000207472616E73706F72745F73656E6450A3
:1007F00061636B6574427566666572204572726FDF
:10080000722025640A0000004D5154545061636BFE
:1008100065745F7265616420213D205355424143F8
:100820004B0A00006772616E74656420716F7320FB
:10083000213D20302C2025640A0000007075627470
:100840006F706963000000006B65795F76616C759D
:10085000652025640D0A00004B65793120697320FD
:100860007072657373656420646F776E202C2065E9
:10087000786974200D0A0000CDE9031005A809ABC2
:100880000AAA0DA900900BA802F0CEFB5AA0089A64
:100890000C9900F095F900BF5DA000F091F9CDE949
:1008A000057924A807C802AB07C3002000900346BF
:1008B00002464FF4807101902CA802F04EFE804653
:1008C000414658A000F07CF90CE042462CA9AFF25A
:1008D0009410FFF7AFFC0446012C00D104E0012086
:1008E00000F0D1FB002EF0DC00BF36B9012C04D0A3
:1008F000214650A000F064F906E0022000F0C3FB9E
:10090000BBF1000F7FF479AE00BF55A000F058F99D
:100910004FF480712CA802F06CFB804642462CA953
:10092000AFF2E810FFF786FC0446012C06D0214602
:100930004FA000F045F94FF0FF30EEE50020ECE568
:1009400010B50024554802F039F8C4B2544855494E
:100950000988445453480088401C5249088008467E
:100960000088B0F5807F01DD0020088010BD10B543
:100970000121880701F0CDFE68B10121880701F04F
:10098000D9FE4948007818B100204749087002E0B4
:1009900001204549087010BD10B54248008818B9BB
:1009A00042A000F00DF910BD002410E0E11704EBA7
:1009B00011710911A4EB011111B914A000F000F993
:1009C0003748015D40A000F0FBF8601C84B2354858
:1009D00000888442EADB0DA000F0F2F800BFE2E7F5
:1009E00010B5044621462E4803F0D0F808B1012086
:1009F00010BD0020FCE700006D6573736167652022
:100A00006172726976656420252E2A730A000000DF
:100A10007075626C697368696E672072656164697C
:100A20006E670A003333333333206C656E202564E0
:100A30000A00000033333333207472616E73706FB9
:100A400072745F73656E645061636B657442756642
:100A5000666572204572726F722025640A0000007C
:100A6000646973636F6E6E656374696E670A000014
:100A700034343434207472616E73706F72745F73C7
:100A8000656E645061636B6574427566666572205D
:100A90004572726F722025640A0000000044004015
:100AA0003800002000000020040000204E6F742059
:100AB0007265637620616E79204D73672066726F70
:100AC0006D20474136210A002030782530327820C9
:100AD00000000000704700BFFEE700BFFEE700BF58
:100AE000FEE700BFFEE770477047704710B500F0A3
:100AF000E9FA10BD10B586B00446012144F20400A5
:100B000000F0AAFE9F4801F019FE4FF40070ADF806
:100B1000140018208DF8170003208DF8160005A981
:100B2000994800F0DDFB4FF48060ADF8140004201C
:100B30008DF8170005A9944800F0D2FB019400201D
:100B4000ADF80800ADF80A00ADF80C00ADF81000E3
:100B50000C20ADF80E0001A98A4801F032FE2520D4
:100B60008DF8000002208DF8010001208DF80200B0
:100B70008DF80300684600F0EAFA012240F22551A0
:100B8000804801F0B6FE01217E4801F0A6FE40211A
:100B90007C4801F08AFF06B010BD10B504460BE09A
:100BA00000BF4021774801F073FF0028F9D014F806
:100BB000011B744801F0FEFE20780028F0D110BD22
:100BC0000FB410B5C2B04FF4807101A803F001F961
:100BD00045A8419001A8419A449902F02DFE04468F
:100BE0000020419001A8FFF7D8FF204642B010BC7A
:100BF0005DF814FB704710B586B004460121480427
:100C000000F037FE0121042000F026FE5F4801F0CD
:100C100095FD0420ADF8140018208DF8170003206E
:100C20008DF8160005A9584800F05AFB0820ADF8C9
:100C3000140004208DF8170005A9534800F050FB5C
:100C400001940020ADF80800ADF80A00ADF80C00E2
:100C5000ADF810000C20ADF80E0001A94B4801F0D2
:100C6000B0FD26208DF8000001208DF80100002045
:100C70008DF8020001208DF80300684600F067FA45
:100C8000012240F22551414801F033FE01213F4845
:100C900001F023FE40213D4801F007FF06B010BDE2
:100CA00010B504460BE000BF4021384801F0F0FECB
:100CB0000028F9D014F8011B344801F07BFE20789D
:100CC0000028F0D110BD70B505460E46002400BFC7
:100CD0000BE000BF40212D4801F0DAFE0028F9D0DA
:100CE000295D2A4801F066FE641CB442F1DB70BD48
:100CF00010B50446FFF733FB2046FFF7D1FF24A0D1
:100D0000FFF7CEFF10BD2DE9F04180460C46154699
:100D10001E4600270EE04046FFF7EAFF304600F08F
:100D2000B2F92046FFF75CFE10B10120BDE8F0816A
:100D3000781CC7B2AF42EEDB0020F7E710B50446DF
:100D4000FFF70DFB2046FFF7ABFF10BD2DE9F0418B
:100D500080460C4615461E4600270EE04046FFF72B
:100D6000EDFF304600F08FF92046FFF739FE10B155
:100D70000120BDE8F081781CC7B2AF42EEDB002055
:100D8000F7E700000038014000080140004400403F
:100D90000D0A000008B50121042000F05DFDF020DF
:100DA000ADF8000048208DF8030003208DF8020004
:100DB0006946484800F094FA08BD70B504460D46EF
:100DC0002946204600F01FFB90B90A2000F048F9A0
:100DD0002946204600F017FB40B900BF29462046AF
:100DE00000F011FB0028F9D0002070BD0120FCE7C5
:100DF0000120FAE770B500240025364800F00CFB0E
:100E00000446102020EA0405A043B0B1012000F000
:100E100027F9304800F000FB04461020A0430028CA
:100E200056D0102020EA040500BF2A4800F0F4FA4A
:100E3000102181430029F8D14AE02020A043B0B11D
:100E4000012000F00DF9234800F0E6FA04462020C6
:100E5000A04300283CD0202020EA040500BF1D4804
:100E600000F0DAFA202181430029F8D130E0402057
:100E7000A043A8B1012000F0F3F8164800F0CCFA26
:100E800004464020A04318B3402020EA040500BFD8
:100E9000104800F0C1FA402181430029F8D117E041
:100EA0008020A043A0B1012000F0DAF8094800F04A
:100EB000B3FA04468020A04350B1802020EA040504
:100EC00000BF044800F0A8FA802181430029F8D12E
:100ED000284670BD0008014010B54FF2F0014448AB
:100EE00000F0ABFA10BD08B50121082000F0B4FCF9
:100EF0004FF2F000ADF8000010208DF80300032041
:100F00008DF8020069463A4800F0EAF9FFF7E4FF7D
:100F100008BD10B51021364800F091FA10BD10B58B
:100F20001021334800F089FA10BD10B52021304857
:100F300000F085FA10BD10B520212D4800F07DFA93
:100F400010BD10B540212A4800F079FA10BD10B547
:100F50004021274800F071FA10BD10B580212448C7
:100F600000F06DFA10BD10B58021214800F065FA3F
:100F700010BD10B54FF480511D4800F060FA10BD4F
:100F800010B54FF480511A4800F057FA10BD10B553
:100F90004FF40051164800F052FA10BD10B54FF44E
:100FA0000051134800F049FA10BD10B54FF48041CC
:100FB0000F4800F044FA10BD10B54FF480410C48C2
:100FC00000F03BFA10BD10B54FF40041084800F0A6
:100FD00036FA10BD10B54FF40041054800F02DFA67
:100FE00010BD10B54FF2F001014800F028FA10BD15
:100FF000000C014030B500BF374800684FF47A72EA
:10100000B0FBF2F1B1F1807F01D301201DE021F0AE
:101010007F40401E4FF0E022506150170F22002801
:1010200007DA13071D0E2D4B00F00F04241F1D556A
:1010300003E013071C0E2A4B1C5400BF00204FF086
:10104000E02290610720106100200028D4D14FF0E9
:10105000E020006920F001004FF0E021086130BD80
:1010600000EB800188001F4908604FF0E02109690A
:1010700041F001014FF0E022116100BF19490968F8
:101080000029FBD1704710B50346002400BF03E0E0
:101090003220FFF7E5FF641C9C42F9D310BD4FF4EA
:1010A0007A7141430F4A11604FF0E021096941F024
:1010B00001014FF0E022116100BF0A4909680029CF
:1010C000FBD170470748006820B106480068401E01
:1010D00004490860704700002000002018ED00E07F
:1010E00000E400E0080000201FB50121084600F0E0
:1010F000C0FB42F20F70ADF8080041F61F40ADF89A
:1011000004000020ADF80A00ADF8060001A94FF078
:10111000804000F0D9FC1C208DF8000001208DF8E3
:1011200001008DF802008DF80300684600F00FF80A
:1011300001221146900701F03EF80121880701F0D5
:101140001FF81FBD31490143314A1160704770B526
:10115000002100230F22C47804B32D4C246804F42A
:10116000E064C4F5E064210AC1F10403CA40447894
:1011700004FA03F18478144021430901254C0678D0
:10118000A155047804F01F050124AC4005786D11C9
:10119000AD0005F1E025C5F8004109E0047804F050
:1011A0001F050124AC401C4D0678761145F82640F9
:1011B00070BD1A4A0A400243154B1B1F1A60704744
:1011C00039B1134A121D12680243114B1B1D1A60DC
:1011D00006E00F4A121D126882430D4B1B1D1A6058
:1011E0007047042808D14FF0E021096941F004015B
:1011F0004FF0E022116107E04FF0E021096921F092
:1012000004014FF0E0221161704700000000FA0570
:101210000CED00E000E400E080E100E080FFFF1F53
:1012200010B50446CC48844208D10121042000F0C6
:101230002DFB0021042000F029FB46E0C748844232
:1012400008D10121082000F021FB0021082000F036
:101250001DFB3AE0C248844208D10121102000F071
:1012600015FB0021102000F011FB2EE0BD48844248
:1012700008D10121202000F009FB0021202000F0EE
:1012800005FB22E0B848844208D10121402000F04B
:10129000FDFA0021402000F0F9FA16E0B34884423C
:1012A00008D10121802000F0F1FA0021802000F017
:1012B000EDFA0AE0AE48844207D10121801500F022
:1012C000E5FA0021A01500F0E1FA10BD10B50121EA
:1012D000084600F0DBFA0021012000F0D7FA10BD2B
:1012E0002DE9F041024600250026002000230024BD
:1012F000002791F803C00CF00F0591F803C00CF023
:10130000100CBCF1000F03D091F802C04CEA0505A7
:1013100091F800C0BCF1000F31D0146800202BE020
:101320004FF0010C0CFA00F3B1F800C00CEA030610
:101330009E4220D183004FF00F0C0CFA03F7BC4300
:1013400005FA03FC4CEA040491F803C0BCF1280F31
:1013500006D14FF0010C0CFA00FCC2F814C00AE0F0
:1013600091F803C0BCF1480F05D14FF0010C0CFA05
:1013700000FCC2F810C0401C0828D1D31460B1F89A
:1013800000C0BCF1FF0F34DD546800202EE000F1F6
:10139000080C4FF0010808FA0CF3B1F800C00CEA91
:1013A00003069E4221D183004FF00F0C0CFA03F785
:1013B000BC4305FA03FC4CEA040491F803C0BCF1F9
:1013C000280F05D100F1080C08FA0CF8C2F81480B7
:1013D00091F803C0BCF1480F07D100F1080C4FF0A1
:1013E000010808FA0CF8C2F81080401C0828CED377
:1013F0005460BDE8F0814FF6FF71018002218170D9
:101400000421C17070470246002093680B400BB165
:10141000012000E0002070470146886880B27047D4
:1014200002460020D3680B400BB1012000E00020F1
:1014300070470146C86880B27047016170474161DA
:1014400070470AB1016100E041617047C1607047B7
:101450004FF480320A4382618161826182698269CC
:10146000704702460020434B18684FF680731840BF
:1014700040EA021008433F4B186070473E49C8617C
:101480007047F0B50A46002300240021002500F033
:101490000046B6F1004F02D1364EF16901E0354EFB
:1014A0007168C0F3034583B200F44016B6F5401FDF
:1014B00008D121F070612F4E766826F070662D4FAE
:1014C0007E6012E000F48016B6F5801F06D1032678
:1014D00006FA05F4A14341F0706106E0460D3601BD
:1014E00003FA06F6B14341F0706122B1460D3601B0
:1014F00003FA06F6314300F00046B6F1004F02D180
:101500001C4EF16101E01B4E7160F0BD30B5002250
:101510008B071C0F0F2303FA04F2164B08338C10B1
:1015200053F824309343134C08348D1044F825307D
:1015300023468C1053F824308C07240F00FA04F44F
:1015400023430C4C08348D1044F8253030BD0A4933
:10155000DC3108607047000000080140000C0140C9
:10156000001001400014014000180140001C01401F
:10157000002001400000014000002042DF480068D8
:1015800040F00100DD49086008464068DC49084039
:10159000DA49486008460068DA490840D7490860D7
:1015A0000846006820F4802008600846406820F45F
:1015B000FE0048604FF41F0088607047CF490968FB
:1015C00021F48031CD4A11601146096821F480214F
:1015D0001160B0F5803F03D0B0F5802F0ED106E04A
:1015E000C649096841F48031C44A116007E0C34923
:1015F000096841F4A021C14A116000E000BF00BFAA
:10160000704710B501460022002300204A11012A2C
:1016100002D1BA4C236806E0022A02D1B74C236AF1
:1016200001E0B64C636A01F01F02012494401C40A3
:101630000CB1012000E0002010BD38B50020009062
:101640000024002500BF3120FFF7DBFF054600988E
:10165000401C00900098B0F5A06F01D0002DF2D092
:101660003120FFF7CEFF08B1012400E0002420461E
:1016700038BD01460020A14A106820F0F80040EA79
:10168000C10010607047A049086070470246002002
:101690009A4B586820F47C1042EA01031843974B98
:1016A0005860704798490866704701460020934A81
:1016B000506820F003000843506070478F4840682E
:1016C00000F00C007047014600208C4A506820F062
:1016D000F00008435060704701460020874A506878
:1016E00020F4E06008435060704701460020834AC0
:1016F000506820F4605040EAC1005060704729B142
:101700007E4A527A02437D4B5A7204E07B4A527AF7
:1017100082437A4B5A7270477B49D83108607047D0
:1017200001460020754A506820F44040084350604C
:1017300070470021714A20321170704A82F82010DF
:10174000012802D004280AD104E001216B4A20328A
:10175000117005E00521694A2032117000E000BFD8
:1017600000BF70476949086070476449096A0143CE
:10177000624A11627047654944390860704730B564
:1017800000210022002400235C4D6D6805F00C014F
:1017900021B1042905D0082923D105E05C4D05605D
:1017A00022E05B4D05601FE0544D6D6805F470123A
:1017B000524D6D6805F48034022505EB92421CB948
:1017C000544D554305600BE04C4D6D6805F40035F4
:1017D0001DB1504D5543056002E04D4D5543056028
:1017E00002E04B4D056000BF00BF444D6D6805F041
:1017F000F0010909484D6B5C0568DD4045603F4DCF
:101800006D6805F4E061090A434D6B5C4568DD4095
:1018100085603A4D6D6805F46051C90A3E4D6B5CB8
:101820004568DD40C560354D6D6805F44041890B64
:101830003A4D6B5CC568B5FBF3F5056130BD29B168
:101840002E4A526902432D4B5A6104E02B4A5269D9
:1018500082432A4B5A61704729B1284A9269024350
:10186000264B9A6104E0254A92698243234B9A6190
:10187000704729B1214AD2690243204BDA6104E062
:101880001E4AD26982431D4BDA61704729B11B4A57
:10189000D2680243194BDA6004E0184AD2688243E6
:1018A000164BDA60704729B1144A12690243134B90
:1018B0001A6104E0114A12698243104B1A617047A1
:1018C00012494039086070470F49C86470470B4996
:1018D000C87170470948406A40F080700749486203
:1018E000704701460020054A92680A400AB101206B
:1018F00000E00020704701498872704700100240E4
:101900000000FFF8FFFFF6FE000042428004424262
:1019100000127A0000093D000C0000201C0000208D
:1019200010B50446FE48844208D10121C014FFF7D7
:10193000ADFF0021E014FFF7A9FFC4E0B4F1804F30
:1019400008D101210846FFF7AEFF00210120FFF773
:10195000AAFFB8E0F348844208D101210220FFF732
:10196000A2FF00210220FFF79EFFACE0EE48844278
:1019700008D101210420FFF796FF00210420FFF782
:1019800092FFA0E0E948844208D101210820FFF736
:101990008AFF00210820FFF786FF94E0E448844294
:1019A00008D101211020FFF77EFF00211020FFF752
:1019B0007AFF88E0DF48844208D101212020FFF728
:1019C00072FF00212020FFF76EFF7CE0DA4884429E
:1019D00008D101214014FFF759FF00216014FFF7DF
:1019E00055FF70E0D548844209D10121C804FFF7B2
:1019F0004DFF00214FF40020FFF748FF63E0D0487F
:101A0000844209D101210805FFF740FF00214FF46E
:101A10008010FFF73BFF56E0CA48844209D10121FC
:101A20004805FFF733FF00214FF40010FFF72EFFAA
:101A300049E0C548844208D101214020FFF733FF27
:101A400000214020FFF72FFF3DE0C048844208D12D
:101A500001218020FFF727FF00218020FFF723FFCF
:101A600031E0BB48844208D101218015FFF71BFFFC
:101A70000021A015FFF717FF25E0B648844209D1E1
:101A800001210804FFF702FF00214FF48030FFF727
:101A9000FDFE18E0B048844209D101214804FFF757
:101AA000F5FE00214FF40030FFF7F0FE0BE0AB48ED
:101AB000844208D101218804FFF7E8FE00214FF499
:101AC0008020FFF7E3FE10BD00220288944B98426D
:101AD0000ED0994B98420BD0B0F1804F08D0914B6B
:101AE000984205D0904B984202D0904B984204D136
:101AF0004FF68F731A404B881A438D4B984207D08C
:101B00008C4B984204D04FF6FF431A40CB881A43BF
:101B100002808B8883850B880385814B98420BD08C
:101B2000854B984208D08B4B984205D08A4B9842FF
:101B300002D08A4B984201D10B7A0386012383821B
:101B4000704770B5002400220023058C4FF6FE7606
:101B500035400584028C8388048B4FF68F752C40AA
:101B6000B51E2C400D882C43751E2A400D892A4332
:101B70004D882A436A4DA8420BD06F4DA84208D029
:101B8000744DA84205D0744DA84202D0734DA842AE
:101B900013D14FF6F7752A404D892A434FF6FB754E
:101BA0002A408D882A434FF6FF652B404FF6FF559C
:101BB0002B408D892B43CD892B4383800483CD8893
:101BC0008586028470BD70B5002400220023058C38
:101BD0004FF6EF7635400584028C8388048B48F6F7
:101BE000FF752C404FF6FF452C400D884FF6FF76D1
:101BF00006EA05252C434FF6DF752A400D8906EAD3
:101C000005152A434D8806EA05152A43444DA84286
:101C100002D0494DA8421DD14FF67F752A404D890B
:101C20004FF6FF7606EA05152A434FF6BF752A40A0
:101C30008D8806EA05152A434FF6FF352B404FF2F3
:101C4000FF752B408D8906EA85052B43CD8906EA71
:101C500085052B4383800483CD880587028470BD6E
:101C600070B5002400220023058C4FF6FF66354036
:101C70000584028C8388848B4FF68F752C404FF639
:101C8000FC752C400D882C434FF6FF552A400D89DA
:101C90004FF6FF7606EA05252A434D8806EA052514
:101CA0002A431F4DA84202D0234DA8421DD14FF216
:101CB000FF752A404D894FF6FF7606EA05252A432F
:101CC0004FF6FF352A408D8806EA05252A434EF651
:101CD000FF752B404DF6FF752B408D8906EA0515E3
:101CE0002B43CD8906EA05152B4383808483CD8859
:101CF0008587028470BD70B5002200230024058C06
:101D00004EF6FF7635400584038C8488828B48F636
:101D1000FF752A404FF6FF452A400D8820E000005D
:101D2000002C01400004004000080040000C00406E
:101D3000001000400014004000340140004C0140FD
:101D4000005001400054014000180040001C0040B9
:101D50000020004000400140004401400048014094
:101D60004FF6FF7606EA05252A434DF6FF752B4010
:101D70000D8906EA05352B434D8806EA05352B43C8
:101D8000FA4DA84202D0FA4DA84208D14BF6FF7591
:101D90002C408D894FF6FF7606EA85152C4384800A
:101DA0008283CD88A0F84050038470BD828B4FF2AF
:101DB000FF331A408283828B4FF6FF7303EA0123BD
:101DC0001A4382837047F0B50C4615460022002165
:101DD0000026078C4EF6FF7C07EA0C070784828BEF
:101DE000018C4FF6FF7707EA043640F6FF473A408A
:101DF0004FF6FF7707EA05273A434FF6FF7707EAE2
:101E000003373A43D94FB8420ED0D94FB8420BD01E
:101E1000B0F1804F08D0D74FB84205D0D64FB84266
:101E200002D0D64FB84206D14DF6FF77394046F47E
:101E30008057394305E047F6FF57394044F480574F
:101E4000394382830184F0BD828B4FF6F3731A40CD
:101E50008283828B0A4382837047F0B50C46154615
:101E6000002200210026078C4FF6FF6C07EA0C07C2
:101E70000784828B018C4FF6FF7707EA04264FF622
:101E80000C773A404FF6FF7707EA03172F433A43A0
:101E9000B64FB8420ED0B64FB8420BD0B0F1804F1B
:101EA00008D0B44FB84205D0B34FB84202D0B34FB8
:101EB000B84206D14FF6FF57394046F48077394390
:101EC00005E04FF2FF57394044F48077394382836D
:101ED0000184F0BD028B4FF2FF331A400283028B64
:101EE0004FF6FF7303EA01231A4302837047F0B5EC
:101EF0000C461546002200210026078C4FF6EF7C89
:101F000007EA0C070784028B018C4FF6FF7707EA7C
:101F1000041640F6FF473A404FF6FF7707EA0337CB
:101F20003A434FF6FF7707EA05273A438F4FB84207
:101F30000ED08F4FB8420BD0B0F1804F08D08D4FEC
:101F4000B84205D08C4FB84202D08C4FB84206D16F
:101F50004FF6DF77394046F01007394305E04FF67A
:101F60005F77394044F01007394302830184F0BDA4
:101F7000028B4FF6F3731A400283028B0A430283EB
:101F80007047F0B50C46154600220021068C4FF62E
:101F9000FE773E400684028B018C4FF60C76324071
:101FA0007E1C06EA03162E433243704EB0420ED01A
:101FB0006F4EB0420BD0B0F1804F08D06D4EB042A2
:101FC00005D06D4EB04202D06C4EB04206D14FF6F5
:101FD000FD76314044F00106314305E04FF6F576D9
:101FE000314044F00106314302830184F0BD70B5F5
:101FF00005460C465D4885420ED05D4885420BD0B3
:10200000B5F1804F08D05B48854205D05A488542DB
:1020100002D05A48854200D100E000BF208850B964
:102020002389A28861882846FFF7ABFFE18828460C
:10203000FFF79EFF25E0208804280AD12389A28883
:1020400061882846FFF753FFE1882846FFF742FFE3
:1020500017E0208808280AD12389A28861882846A9
:10206000FFF7FBFEE1882846FFF7EEFE09E0238933
:10207000A28861882846FFF7A6FEE1882846FFF778
:1020800095FE70BD2DE9F04105460C46002601275E
:10209000608808B9022600E00026A088012801D146
:1020A000022700E001272088A0B92389A28861883F
:1020B0002846FFF766FFE1882846FFF759FF238986
:1020C0003A4631462846FFF712FFE1882846FFF7D7
:1020D00001FF13E02389A28861882846FFF707FFE4
:1020E000E1882846FFF7F6FE23893A46314628461E
:1020F000FFF747FFE1882846FFF73AFFBDE8F08188
:102100000A884B881A438B881A43CB881A430B8959
:102110001A434B891A438B891A43A0F8442070470D
:102120004FF6FF71818000210180C18041800172E2
:1021300070470021018041808180C18001814181FF
:102140008181C1817047002101804180012181800E
:102150000021C18001817047002101804180818080
:10216000C18001814181818170470000002C0140C4
:10217000003401400004004000080040000C004012
:1021800021B1028842F00102028004E002884FF689
:10219000FE731A400280704731B1B0F8442042F417
:1021A0000042A0F8442005E0B0F84420C2F30E023B
:1021B000A0F8442070471AB183890B43838102E061
:1021C00083898B43838170478182704741EA020390
:1021D000A0F8483070471AB183890B43838102E02D
:1021E00083898B438381704701894FF6F8721140D0
:1021F000018170470A46002101894FF68F7319400B
:1022000011430181704730B504460D4629462046EA
:10221000FFF7F0FF208940F00700208130BD2DE955
:10222000F04104460D4616461F46602D06D13B463A
:10223000012231462046FFF75AFE05E03B460122C7
:1022400031462046FFF79DFE29462046FFF7D2FF84
:10225000208940F007002081BDE8F08130B50C46B0
:1022600000210189C9B24FF6FF7505EA0325154320
:1022700025432943018130BD2DE9F04105460E4635
:1022800017469846002443463A4631462846FFF70B
:10229000E5FF2C894FF6F870044044F007044FF630
:1022A0008F70044044F070042C81BDE8F081F0B5DB
:1022B00004460D4616461F463B46324629462046F2
:1022C000FFF7CCFF208940F480402081F0BD0185DC
:1022D000828270470A46002101884FF68F731940A9
:1022E000114301807047F0B50C4615461E4600218B
:1022F000002200230189028B038C4FF6F8773940C6
:1023000021434FF6FC473A4040F201173A434FF65B
:10231000DD773B404FF6FF7707EA06172F433B4335
:10232000018102830384F0BD0A460021018B4FF630
:102330008F7319401143018370470A460021018BB6
:1023400048F6FF7319404FF6FF7303EA022319435F
:10235000018370470A460021818B4FF68F73194025
:102360001143818370470A460021818B48F6FF7331
:1023700019404FF6FF7303EA022319438183704724
:1023800021B1028842F08002028004E002884FF608
:102390007F731A400280704721B1828842F00402A4
:1023A000828004E082884FF6FB731A408280704777
:1023B00021B1828842F00802828004E082884FF6D0
:1023C000F7731A408280704721B1828842F001027F
:1023D000828004E082884FF6FE731A408280704744
:1023E0000A460021018B4FF6F77319401143018310
:1023F00070470A460021018B4FF2FF7319404FF6D8
:10240000FF7303EA02231943018370470A46002140
:10241000818B4FF6F77319401143818370470A4649
:102420000021818B4FF2FF7319404FF6FF7303EACF
:1024300002231943818370470A460021018B4FF61E
:10244000FB7319401143018370470A460021018B39
:102450004FF6FF3319404FF6FF7303EA0223194387
:10246000018370470A460021818B4FF6FB731940A8
:102470001143818370470A460021818B4FF6FF3359
:1024800019404FF6FF7303EA022319438183704713
:102490000A460021018B4FF67F73194011430183D7
:1024A00070470A460021018BC1F30E014FF6FF73FE
:1024B00003EA02231943018370470A460021818BF6
:1024C0004FF67F7319401143818370470A460021FC
:1024D000818BC1F30E014FF6FF7303EA0223194308
:1024E000818370470A460021018C4FF6FD73194025
:1024F0001143018470470A460021018C4FF6F7739F
:1025000019401143018470470A460021018C4FF69F
:10251000DF7319404FF6FF7303EA02131943018476
:1025200070470A460021018C4FF67F7319404FF621
:10253000FF7303EA02131943018470470A4600211E
:10254000018C4FF6FF5319404FF6FF7303EA022345
:102550001943018470470A460021018C4FF2FF7332
:1025600019404FF6FF7303EA0223194301847047B1
:102570000A460021018C4DF6FF7319404FF6FF7398
:1025800003EA023319430184704730B50023012464
:102590008C40A3B2048C9C430484048C02FA01F5A1
:1025A000ADB22C43048430BD30B5002304248C40EC
:1025B000A3B2048C9C430484048C02FA01F5ADB2EE
:1025C0002C43048430BD70B5034600200024184617
:1025D000183001258D40ACB21D8CA5431D8409B176
:1025E000082909D100EB6100056825F07005056038
:1025F0000568154305600EE00D1FC5F34E05284420
:10260000056825F4E045056005684FF6FF7606EAA3
:1026100002263543056070BD21B1028842F00202F6
:10262000028004E002884FF6FD731A400280704772
:1026300021B1028842F00402028004E002884FF6D1
:10264000FB731A400280704721B1828842F08002F9
:10265000828004E082884FF67F731A408280704740
:1026600002884FF6F7731A40028002880A430280FC
:10267000704782884FF68F731A40828082880A439F
:102680008280704702894FF6F8731A4002810289EE
:102690000A430281704702894FF67F731A40028114
:1026A00002890A430281704781847047818570479F
:1026B000818670470187704781877047A0F8401076
:1026C000704702884FF6FF431A40028002880A438F
:1026D000028070470146888E70470146088F704718
:1026E0000146888F70470146B1F8400070470146A7
:1026F000888C70470146088D704702460020138A77
:102700000B400BB1012000E000207047CA43028259
:10271000704730B50246002000230024158A05EAE0
:102720000103958905EA010413B10CB1012000E011
:10273000002030BDCA4302827047000010B5044635
:10274000FB48844209D101218803FFF79FF800214B
:102750004FF48040FFF79AF832E0F648844209D1FE
:1027600001214804FFF79FF800214FF40030FFF7E4
:102770009AF825E0F048844209D101218804FFF746
:1027800092F800214FF48020FFF78DF818E0EB4815
:10279000844209D10121C804FFF785F800214FF4D4
:1027A0000020FFF780F80BE0E548844208D10121C2
:1027B0000805FFF778F800214FF48010FFF773F851
:1027C00010BD2DE9F04786B005460E460024A2460E
:1027D00000BFA1460027B08900B100BF2F462C8A58
:1027E0004CF6FF700440F08804432C82AC894EF60E
:1027F000F3100440B08831890843718908430443C9
:10280000AC81AC8A4FF6FF400440B0890443AC82EF
:1028100001A8FEF7B4FFC648874202D1DDF810A038
:1028200001E0DDF80CA0A88900F4004040B10AEBFB
:10283000CA0000EB0A1031684900B0FBF1F807E06C
:102840000AEBCA0000EB0A1031688900B0FBF1F80E
:102850006420B8FBF0F004012009642101FB108919
:10286000A88900F4004040B1322000EBC900B0FB61
:10287000F1F000F00700044308E0322000EB0910FB
:102880006421B0FBF1F000F00F0004432C8106B08E
:10289000BDE8F0874FF41651016000218180C180AE
:1028A00001810C21418100218181704710B50246D0
:1028B0000020108A4FF2FF0318400B884C882343F6
:1028C0008C882343CC8823431843108210BD0021F9
:1028D000018041808180C180704721B1828942F4AA
:1028E0000052828104E082894DF6FF731A40828192
:1028F0007047F0B50346002400260025002040F66E
:102900006A17B94200D100BF1846C1F3421401F062
:102910001F06012707FA06F5012C01D10C3004E04F
:10292000022C01D1103000E014301AB107682F4397
:10293000076002E00768AF430760F0BD1AB1838A01
:102940000B43838202E0838A8B4383827047028A2F
:102950004FF6F0731A400282028A0A4302827047DD
:1029600082894FF2FF731A40828182890A438281F1
:10297000704721B1828942F00202828104E082899B
:102980004FF6FD731A4082817047028A4FF6DF735B
:102990001A400282028A0A430282704721B1028AE7
:1029A00042F48042028204E0028A4BF6FF731A402E
:1029B00002827047C1F3080282807047014688880E
:1029C000C0F308007047818941F00101818170479F
:1029D000028BD2B20283028B42EA01220283704749
:1029E000028B02F47F420283028B0A430283704708
:1029F00021B1828A42F02002828204E0828A4FF66C
:102A0000DF731A408282704721B1828A42F010023D
:102A1000828204E0828A4FF6EF731A408282704706
:102A200021B1828A42F00802828204E0828A4FF653
:102A3000F7731A408282704721B1828942F40042C2
:102A4000828103E08289C2F30E028281704721B144
:102A5000828A42F40062828204E0828A4FF2FF732B
:102A60001A4082827047828A4FF6FB731A40828234
:102A7000828A0A438282704721B1828A42F002022E
:102A8000828204E0828A4FF6FD731A408282704788
:102A900002460020B1F5007F00D100BF13880B4033
:102AA0000BB1012000E00020704701F40072B2F584
:102AB000007F00D100BFCA430280704770B5024654
:102AC000002400230025002040F66A16B14200D100
:102AD00000BFC1F3421501F01F03012606FA03F3FC
:102AE000012D02D19689334006E0022D02D1168ACB
:102AF000334001E0968A33400C12012606FA04F4B2
:102B00001688344013B10CB1012000E0002070BDE4
:102B100010B50022002340F66A14A14200D100BF84
:102B20000A1201249440A3B2DC43048010BD0000CB
:102B3000003801400044004000480040004C004084
:102B4000005000400CB50020019000906C480068D7
:102B500040F480306A49086000BF6948006800F4AA
:102B6000003000900198401C0190009818B901981D
:102B7000B0F5A06FF1D16248006800F4003010B1E8
:102B80000120009001E0002000900098012843D12E
:102B90005C48006840F010005A4908600846006828
:102BA00020F0030008600846006840F0020008605A
:102BB00053484068524948600846406848600846A3
:102BC000406840F4806048600846406820F47C100B
:102BD00048600846406840F4E810486008460068CD
:102BE00040F08070086000BF4548006800F0007049
:102BF0000028F9D04248406820F00300404948606E
:102C00000846406840F00200486000BF3C48406809
:102C100000F00C000828F9D10CBD10B5FFF792FFA9
:102C200010BD10B53648006840F001003449086016
:102C30000846406834490840314948600846006801
:102C4000324908402E4908600846006820F4802078
:102C500008600846406820F4FE0048604FF41F00FA
:102C60008860FFF7DAFF4FF000602949086010BD67
:102C700010B5002100200022214B5B6803F00C01FD
:102C800021B1042906D0082928D107E0214B224C84
:102C9000236027E01F4B204C236023E0184B5B6828
:102CA00003F47010164B5B6803F48032022303EBCD
:102CB000904022B9194B4343174C23600DE0104B51
:102CC0005B6803F4003323B1144B4343124C23607D
:102CD00003E0104B4343104C236003E00D4B0E4CBC
:102CE000236000BF00BF064B5B68C3F303130C4CAB
:102CF000E15C094B1B68CB40074C236010BD000012
:102D000000100240002002400000FFF8FFFFF6FE26
:102D100008ED00E000127A002000002000093D00CC
:102D2000240000200948804709480047FEE7FEE7E5
:102D3000FEE7FEE7FEE7FEE7FEE7FEE7FEE7FEE76B
:102D400004480549054A064B70470000232C00083B
:102D5000ED0000089801002098070020980300204B
:102D60009803002070B504460025207A032801D17D
:102D70000C2503E0207A042800D10A25D4E90412A6
:102D8000E06800F0DBFA801C0544E07E68B1D4E91D
:102D90000A12606A00F0D2FA861CD4E90D12206B88
:102DA00000F0CCFA3044801C0544206C08B9A06CBB
:102DB00030B1D4E91112206C00F0C0FA801C054437
:102DC000E06C08B9606D30B1D4E91412E06C00F029
:102DD000B5FA801C0544284670BD2DE9FE43054622
:102DE0000E461446029500200190009000274FF0F7
:102DF000FF382046FFF7B6FF0746814600F0E5F9A9
:102E0000B04202DD6FF001088FE000208DF8040071
:102E1000019820F0F000103001909DF8041002A8F5
:102E200000F015FA3946029800F088F90299084432
:102E30000290207A042808D177A102A800F025FA90
:102E4000042102A800F003FA07E075A102A800F02F
:102E50001CFA032102A800F0FAF900208DF8000006
:102E6000A17E009861F341000090E07E08B101214D
:102E700000E00021009861F3820000900098C0F308
:102E8000800058B194F83D10009861F3C4000090A0
:102E900094F83C10009861F345100090206C08B93C
:102EA000A06C20B1009820F0800080300090E06C91
:102EB00008B9606D20B1009820F0400040300090CB
:102EC0009DF8001002A800F0C2F9218B02A800F0C2
:102ED000C4F902A8D4E90423E16800F0F3F9E07E24
:102EE00058B102A8D4E90A23616A00F0EBF902A8FC
:102EF000D4E90D23216B00F0E5F90098C0F3C01070
:102F000028B102A8D4E91123216C00F0DBF9009864
:102F1000C0F3801028B102A8D4E91423E16C00F0BA
:102F2000D1F90298A0EB050800BF4046BDE8FE833A
:102F30002DE9FF4704460D461646994600200390AA
:102F4000029600278046009002A800F079F98DF8DB
:102F50000C000398C0F30310022800D01FE001A961
:102F6000029800F055F98046029908440290DDE984
:102F7000011047180298381A022800DA0FE002A858
:102F800000F05EF98DF80000009800F0010020705C
:102F900002A800F055F928704FF0010800BF404624
:102FA00004B0BDE8F0872DE9FC4104460D46164605
:102FB00000200190471E0094022D01DA871E15E0C3
:102FC00000208DF80400019866F3071001909DF829
:102FD0000410684600F03BF90021009800F0AEF8BC
:102FE0000099084400900098071B00BF3846BDE8D0
:102FF000FC8170B504460D460E2229462046FFF797
:10300000D2FF70BD70B504460D460C2229462046FD
:10301000FFF7C9FF70BD00004D515454000000007F
:103020004D514973647000002DE9FF5F06460C4660
:1030300017469846DDE90FABDDF838900020039085
:1030400011980290002500200190009002A800F045
:10305000F7F88DF80C000398C0F30310032800D094
:1030600032E00398C0F3C00030700398C0F3410011
:103070002060039800F0010038706946029800F063
:10308000C7F80190029908440290009902984518E7
:103090002A4602A9484600F034F910B10298281ACD
:1030A00000D511E02068002804DD02A800F0BBF87C
:1030B000A8F800000298281ACBF800000298CAF875
:1030C00000000120019000BF019804B0BDE8F09F0E
:1030D0002DE9FE4F04460D4616461F46DDF830A08A
:1030E0000020029001978046814601A800F0A8F8D0
:1030F0008DF808000298C0F3C00028700298C0F351
:10310000031020706946019800F082F88146019909
:1031100008440190DDE9001000EB01080198A8EBDC
:103120000000022800DA06E001A800F07CF83080F8
:103130004FF0010900BF4846BDE8FE8F30B502469A
:10314000002300BF0846CD1701EB5565ED11A1EB3B
:10315000C515ECB2CD1701EB5565E911002901DD6C
:1031600044F0800418465B1C14540029EADC18461D
:1031700030BD2DE9F84305460C4601260027002006
:10318000206000BF4FF0FF38781C0746042801DD9F
:1031900000BF17E001216846A8478046B8F1010F3B
:1031A00000D00FE09DF8001001F07F01206801FBC6
:1031B00006002060F6019DF8000000F08000002865
:1031C000E0D100BF3846BDE8F883401C802801DA12
:1031D000401C0AE0B0F5804F01DA801C05E0D449BC
:1031E000884201DAC01C00E0001D704710B502469D
:1031F000002309E0CF48006800781070CD480068CF
:10320000401CCC4C20605B1C8B42F3DB084610BD9D
:1032100070B504460D46C74804602946AFF2330036
:10322000FFF7A7FF70BD30B501460A6853781478E0
:103230004FF4807505FB04300B689B1C0B6030BDA0
:1032400001460A6810780A68521C0A6070470268D2
:1032500011700268521C0260704710B50A46CB1705
:1032600001EB13631B0A046823700268521C02609E
:103270000A46CB1701EB13631B12A1EB032304686F
:1032800023700268521C026010BD70B504460E46E1
:10329000304600F0B1FC054629462046FFF7DDFF29
:1032A0002A463146206800F01DFD20682844206031
:1032B00070BD10B501464A780B784FF4807404FB5A
:1032C000032010BD1FB50446029800280DDD2046DE
:1032D0000299FFF7C2FFDDE90221206800F002FD3C
:1032E00020680299084420600AE0019820B1204635
:1032F0000199FFF7CAFF03E000212046FFF7ADFF69
:103300001FBDF0B505460C46164600272068301A4A
:1033100001280FDD2046FFF786FF68602068696896
:103320000844B04206D82168A9602068696808444A
:1033300020600127002028603846F0BD37B5002402
:10334000009820B1009800F057FC044600E0019C72
:1033500020463EBD2DE9F04104460E460027B84602
:10336000206828B12568206800F046FC074601E087
:10337000A5686768304600F03FFC8046474508D1A5
:103380003A463146284600F056FC10B90120BDE807
:10339000F0810020FBE72DE9FC4104460F4615466D
:1033A0004FF0FF38002001900026009001212046B8
:1033B000A847012800D01EE0012669462846FFF7ED
:1033C000D8FE601C0099FFF7B9FE0644009830440F
:1033D000B84200DD0FE0009830B1A0190099A8476D
:1033E0000099884200D006E020788DF8040001980A
:1033F000C0F3031800BF4046BDE8FC81F8B50446A1
:103400004FF0FF36206918B90120A0600020E0606D
:1034100000BF2069042800DB22E001226946D4E9CC
:10342000003098470546401C00B919E00DB9002648
:1034300016E02069401C20619DF8001001F07F011A
:10344000D4E9022001FB0200E060A068C001A06096
:103450009DF8000000F080000028DAD1266900BF46
:103460003046F8BD2DE9F84306460F4614464FF0A6
:10347000FF3800200090207D30B1012817D00228AD
:103480002FD00020207500BF01223146D4E9003042
:1034900098470546401C00B946E015B90020BDE834
:1034A000F88300202061207D401C207500BF20464D
:1034B000FFF7A4FF0546401C00B935E00DB9002018
:1034C000EDE7701CE168FFF739FE401C2061D4E98C
:1034D00003010844B84200DD26E0207D401C207531
:1034E00000BFE068B8B1D4E9032C0CEB0601D4E9C5
:1034F000003098470546401C00B915E00DB9002082
:10350000CDE7E068401BE060206928442061E06866
:1035100008B10020C3E730788DF800000098C0F3B0
:10352000031800BF00BF00BF002020754046B6E76B
:10353000FFFF1F00340000207FB50546089E0024D1
:1035400001A807C8FFF7FAFE801C30440444002D90
:1035500000DDA41C204604B070BD2DE9F04F87B0FB
:1035600005460F4690461C46DDE915B6DDE9109A82
:10357000069500200590049003900096204612A91D
:103580000EC9FFF7D9FF04900290FFF71EFEB84264
:1035900003DD6FF00100039033E0059820F0F000A8
:1035A00030300590059868F3C3000590059864F3E2
:1035B00042000590059869F3000005909DF81410ED
:1035C00006A8FFF744FE04990698FFF7B7FD069991
:1035D0000844069006A812A90EC9FFF773FE002C36
:1035E00003DD514606A8FFF738FE324659460698D5
:1035F00000F078FB0698304406900698401B039034
:1036000000BF039807B0BDE8F08F2DE9FC470446E2
:103610000E4615461F46DDF82880002001908146A1
:103620000094042E02DA6FF0010924E0019865F39A
:1036300007100190019867F3C3000190062D01D196
:10364000012100E00021019861F3420001909DF802
:1036500004106846FFF7FBFD02210098FFF76EFD9E
:1036600000990844009041466846FFF7F6FD00982F
:10367000A0EB040900BF4846BDE8FC87F8B5054645
:103680000E46144600230422314628460094FFF7D4
:10369000BCFFF8BDF8B506460F4614461D46234646
:1036A0000622394630460095FFF7AFFFF8BDF8B562
:1036B00005460E461446002307223146284600944C
:1036C000FFF7A3FFF8BD2DE9F04105460E4602279E
:1036D00000240AE004EB440006EB800393E80700B3
:1036E000FFF72CFEC01C0744641CAC42F2DB3846DA
:1036F000BDE8F0812DE9FF5F05460E461746984666
:10370000DDE90E9A039500200290019000900024BC
:1037100051464846FFF7D7FF83460190FFF755FD16
:10372000B04202DDA01E009038E000208DF80800B5
:10373000029820F0F00080300290029867F3C300F6
:103740000290029820F00600801C02909DF808105C
:1037500003A8FFF77CFD01990398FFF7EFFC03999D
:1037600008440390414603A8FFF777FD00240FE0CB
:1037700004EB44000AEB800C03A89CE80E00FFF762
:10378000A1FD109810F8241003A8FFF760FD641C39
:103790004C45EDDB0398401B009000BF009804B03F
:1037A000BDE8F09F2DE9FE4F05460E4614461F4624
:1037B000DDE90C9B00200290CDF804908046824603
:1037C00001A8FFF73DFD8DF808000298C0F3031033
:1037D000092800D02CE069460198FFF719FD8246C0
:1037E000019908440190DDE9001000EB01080198FF
:1037F000A8EB0000022800DA1AE001A8FFF713FD89
:103800002880002020600DE02068B04202DD4FF0EB
:10381000FF3A0DE001A8FFF713FD2268511C21605B
:1038200047F8220001984045EED34FF0010A00BF4F
:103830005046BDE8FE8F00001CB50C46064B7B448D
:1038400069460090204600F086FD04460020694647
:1038500000F094FD20461CBD3B0B000070B50446F3
:1038600085690068C10601D5302600E02026C00722
:1038700007D070BDD4E9012130469047206A401C32
:1038800020626D1EF6D570BD70B50446856900785E
:10389000C00707D170BDD4E9012120209047206ADC
:1038A000401C20626D1EF6D570BD70B50C460546F5
:1038B000012A05D02878800600D5EA69002302E0B5
:1038C000012305E05B1C934202D2E05C0028F9D1A1
:1038D000A869E618C01AA861286A18442862284610
:1038E000FFF7BCFF04E0D5E9012114F8010B904774
:1038F000B442F8D32846FFF7C7FF70BD2DE9F04169
:103900000646002410687529314615A510D000F030
:1039100093FA002802DA404212A507E031688A07CC
:1039200001D511A502E0490704D510A5012401E045
:1039300000F08BFA00210A2306F1240707E0B0FB10
:10394000F3F203FB1200303078541046491C002873
:10395000F5D123462A463046BDE8F04100F07EBA54
:10396000000000002D0000002B00000020000000DF
:10397000F0B40D460188090502D5214C7C4402E0D3
:103980001F4C7C440E34002100F1240608E002F0B4
:103990000F071209E75D42EA03721B097754491CBD
:1039A00052EA0307F3D102780023120704D5702DE1
:1039B00006D009B1022311342246F0BC00F04EBA01
:1039C00001231034F8E770B504460D46214610680F
:1039D00000F03BFA024629462046BDE8704000232D
:1039E000C6E7D21D22F00703D3E90023C0E703682E
:1039F000126843F0200303600823C3610023B7E784
:103A00007C1700002DE9F05F894604464FF0000A5C
:103A1000DFF874B1FB44C0F820A02046E168884775
:103A2000002874D0252806D0D4E901219047206AC7
:103A3000401C2062F1E700265F462046E168884787
:103A40002028054607DB312D05D2781910F8200C07
:103A500008B10643F1E7B00701D526F00406C4F823
:103A60001CA00027C4F818A02A2D09D0284601F070
:103A7000E4FA38B304EB8708303DC8F8185019E071
:103A800059F8041B204604EB87029161E1688847DE
:103A9000012F054618D1E069002820DA26F020061B
:103AA0001DE0D8F8180000EB800005EB400030382E
:103AB000C8F818002046E1688847054601F0BDFABD
:103AC0000028EED1012F0AD02E2D08D12046E16822
:103AD00088477F1C0546022F46F02006C4DBA069FC
:103AE000002803DA404246F00106A061F00701D049
:103AF00026F010066C2D0BD0682D09D04C2D39D036
:103B00006A2D35D0742D35D07A2D33D016E038E0BB
:103B1000E1682F4620468847B842054609D16C2FF8
:103B200026D04FF48060E16806432046884705466A
:103B300004E06C2F1AD04FF4807006430DB3A5F14A
:103B40004100192802D8203546F400664A46294625
:103B5000204626604E46FCF703FB80B101280BD0BF
:103B6000F61D26F0070000F1080956E74020E4E7BB
:103B70008020D8E70020D6E706F104094DE7284663
:103B800052E7206ABDE8F09F0C17000030B50546EB
:103B90000B462A4613F8014B12F8010B08B1A0425C
:103BA000F8D01CB1002802D06D1CF1E7284630BDCA
:103BB00040EA0103024630B59B0710D14FF00134B3
:103BC00000E008C208C91D1B9D4315EAC41FF8D0B8
:103BD00013F0FF0102F8011B0DD01B0AF8E711F8E2
:103BE000013B002B02F8013B05D011F8013B002BF3
:103BF00002F8013BF3D130BD10B5431C02E010F8D0
:103C0000011B71B18107FAD14FF0013202C88C1A41
:103C10008C4314EAC211F9D0C01A0A0603D0C01EA0
:103C200010BDC01A10BD0A0401D0801E10BD0902CB
:103C3000FCD0401E10BD40EA010370B59B072ED199
:103C40004FF00136042A2AD308C810C99D1B9D4392
:103C5000121F15EAC61517D0D8B2E1B2401A50EAC1
:103C6000056110D198B2A1B2401A50EA05410AD1BB
:103C700023F07F4024F07F41401A50EA052102D111
:103C8000180EA0EB146070BDA342DBD018BA21BAA5
:103C9000884201D9012070BD4FF0FF3070BD0AB9D4
:103CA000002070BD10F8013B11F8014B63B1A34235
:103CB0000AD1521E08D010F8013B11F8014B1BB17C
:103CC000A34201D1521EEDD1181B70BD421E12F845
:103CD000013F002BFBD111F8013B002B02F8013B07
:103CE000F9D17047032A40F2308010F0030C00F045
:103CF000158011F8013BBCF1020F624498BF11F826
:103D000001CB00F8013B38BF11F8013BA2F10402DE
:103D100098BF00F801CB38BF00F8013B11F0030356
:103D200000F02580083AC0F0088051F8043B083ABA
:103D300051F804CBA0E80810F5E7121D5CBF51F85C
:103D4000043B40F8043BAFF30080D20724BF11F8D6
:103D5000013B11F801CB48BF11F8012B24BF00F83B
:103D6000013B00F801CB48BF00F8012B704710B5AC
:103D7000203AC0F00B80B1E81850203AA0E8185063
:103D8000B1E81850A0E81850BFF4F5AF5FEA027C24
:103D900024BFB1E81850A0E8185044BF18C918C093
:103DA000BDE810405FEA827C24BF51F8043B40F834
:103DB000043B08BF7047D20728BF31F8023B48BF19
:103DC00011F8012B28BF20F8023B48BF00F8012B57
:103DD00070474FF0000200B51346944696462039CE
:103DE00022BFA0E80C50A0E80C50B1F12001BFF4B4
:103DF000F7AF090728BFA0E80C5048BF0CC05DF81A
:103E000004EB890028BF40F8042B08BF704748BF67
:103E100020F8022B11F0804F18BF00F8012B7047DB
:103E2000704770477047000010B500F099FB001D07
:103E300010BD00BF1512000009684A0501D540B247
:103E40007047C905FCD500B2704709684A0501D51D
:103E5000C0B27047C905FCD580B270472DE9F04764
:103E60000D4699469246044600F1240801688806EA
:103E700004D5E06921F01001216000E00120A84292
:103E800001DD471B00E00027A1697A1902EB090058
:103E9000081AA0612078C00602D42046FFF7DEFC95
:103EA000002608E0D4E901211AF806009047206AAC
:103EB000401C761C20624E45F4DB2078C0060AD5F3
:103EC0002046FFF7CBFC06E0D4E9012130209047E3
:103ED000206A401C2062381EA7F10107F4DC07E0CD
:103EE000D4E9012118F805009047206A401C20629F
:103EF000281EA5F10105F3DC2046FFF7C5FC20785C
:103F0000000602D50220BDE8F0870120FBE711681A
:103F10000268006A530501D508700AE0D30501D58F
:103F2000088006E0130603D5C217C1E9000200E0CD
:103F300008600120704770472DE9FF4F0C461E4670
:103F40004FF0FF378BB0D2E90001DDF860800A90B6
:103F50008A46C1F30A5505B93D46002108464FF08F
:103F60000000BAF1000F00F4400005DA00EB800019
:103F70004FF4400101EA50004FEA9059B9F1010FA6
:103F800000DDB9460A9850EA4A000ED044F61050B7
:103F9000A5F2FF3545432F14B8F1000F1ED075422E
:103FA000291E1EDDC9F100021CE0B8F1010F4FF01F
:103FB000000001D0302103E0F24305E02154401C11
:103FC000B042FBDB30460022002121540B99C1F89E
:103FD0000880C1E900200FB0BDE8F08FBD1B6D1C4B
:103FE000DEE74A4600DA694206A800F059FB06AB54
:103FF00093E8070003AB83E8070050460A9900F0F6
:104000004DFC8DE80700A0F500501F380090039884
:10401000002D09DD42F21F014A46084403A903901E
:10402000684600F0ACFE08E0A0F500504A461F3894
:1040300003A90390684600F0B6FE8DE8070000046F
:10404000000C03D04FF0FF30410800E01046B8F1FB
:10405000000F03D00022009215461EE0751E05D405
:1040600000F082FA303262556D1EF9D5B346012256
:10407000084302D000227F1C04E02078302801D1C0
:1040800000227F1E002A099786D01DE0112D07DA35
:1040900000F06AFA303262556D1C50EA0102F5D127
:1040A000084302D00098C8B10EE00021681E05E068
:1040B000235C625C63542254401E491C8142F7DB3E
:1040C000AB46A81B401E0990002004F80B000B987B
:1040D000099AC0F80880C0E9002B7CE711264FF050
:1040E000000859E72DE9F04F88460446D21D22F01A
:1040F000070191B0D1E90001CDE90A0100F089FF83
:1041000002460B98C00F01D02D2007E020688107E0
:1041100001D52B2002E0202101EAC000032A0990EA
:1041200001D0072A05DB03464146204600F062FA2B
:1041300009E12078800601D5E06900E00620B8F1A9
:10414000650F814606D0B8F1660F18D0B8F1670F39
:1041500070D131E00020B9F1110F009001DB112383
:1041600001E009F101030AAA01A90CA8FFF7E4FE86
:10417000DDE90C70002609F10105834647E00120C6
:104180004B4600904FF000470AAA01A90CA8FFF780
:10419000D3FEDDE90DB00C995D46002610B909F19A
:1041A00001000D18B9EB050003D4C0F1FF3609F189
:1041B0000105A5EB09002BE0B9F1010F01DA4FF081
:1041C00001090020B9F1110F0090484601DD1123CB
:1041D00000E003460AAA01A90CA8FFF7ADFEDDE93D
:1041E0000C704D4600268346207800070AD4AB4564
:1041F00000DA5D4601A8012D04DD411911F8011C0A
:10420000302907D04F4502DA17F1040F04DA0120F4
:1042100082460FE06D1EEEE7002F02DCED1B3E44F0
:1042200003E0781CA84200DD7D1CB81B00F1010AE8
:104230004FF000472078000703D4AA4501DB4FF078
:10424000FF3A0021B7F1004F0DF143088DF84310FC
:1042500022D002202B23002F01DA7F422D234FF0A2
:104260000A0C011EA0F1010000DC47B197FBFCF134
:104270000CFB11720F46303208F8012DF1E7A8F15E
:10428000010003702188090501D5452100E0652161
:10429000A0F1010800F8011C09980FA9A1EB08077B
:1042A000FF1D00B10120411901EBEA70A1693844FA
:1042B000081A401EA0612078C00602D42046FFF7ED
:1042C000CDFA099828B1D4E901219047206A401C11
:1042D00020622078C00622D52046FFF7BFFA1EE0F4
:1042E000002E04DBB34502DD01A8805D00E0302034
:1042F000D4E901219047206A401C2062761CAAF173
:1043000001005FEA000A0AD100F02AF9C0680168DA
:10431000405CD4E901219047206A401C2062281E9D
:10432000A5F10105DCDC07E0D4E9012118F8010B57
:104330009047206A401C2062381EA7F10107F3DC79
:104340002046FFF7A1FA022011B045E601694A1C98
:1043500002610878704700B58FB0CDE901310021C6
:10436000059105497944CDE9031011466846FFF7E8
:1043700049FB0FB000BD0000E5FFFFFF0A6802F82F
:10438000010B0A60704710B5436913B1AFF30080A9
:1043900001E0FFF78AFA012010BD127800F1240134
:1043A0000A7000224A700122EDE711684FF0FF32D7
:1043B000E9E700002DE9FF5F15468A460446DFF86D
:1043C000AC80F8440027D8E900103E46CDE9001043
:1043D00010E03AF816106A4602A800F0CDF9411C28
:1043E00007D02178890603D5E269391891420DD8A2
:1043F0000744761C2078800602D5E069B84205DDC6
:10440000AE42E6DB3AF816000028E2D1A069C01BF4
:10441000A0612046FFF722FAD8E90010CDE900108C
:10442000002017E03AF818106A4602A800F0A4F934
:10443000B0F1FF3F81460BD000250DF1080B05E0E0
:10444000D4E901211BF8050090476D1C4D45F7D3B9
:1044500008F10100B0428046E4DB206A3844206263
:104460002046FFF711FABDE8FF9F0000720D000023
:104470002DE9F0418046D21D22F007020025D2E945
:104480000002F52914A612D0002A06DA0023D0EB88
:10449000030063EB020211A608E0D8F800108B07B6
:1044A00001D50FA602E0490701D50EA60125114648
:1044B000002408F1240704E000F056F830323A55A1
:1044C000641C50EA0102F7D12B4632462146404691
:1044D000BDE8F041FFF7C2BC000000002D00000065
:1044E0002B0000002000000030B4002100F1240463
:1044F00008E002F00705D208303542EA4372DB08D3
:104500006554491C52EA0305F3D10468002310A244
:10451000250708D504F020040C4304D0C469012306
:104520000CA2641EC46130BCFFF798BC10B50446F1
:1045300021461068FFF789FC02462046BDE810407E
:104540000023D1E7D21D22F00701D1E90023CBE7F8
:1045500000000000300000000048704738010020D3
:10456000004870475801002030B5B0F10A024FEA08
:10457000900E71F100034EEA817EB0EB0E0061EB0C
:1045800091014FEA101E4EEA017E10EB0E0041EB46
:1045900011114FEA102E4EEA016E10EB0E0041EBA6
:1045A00011214FEA104E4EEA014E10EB0E0041EB86
:1045B0001141401841F100014FEAD00040EA41703A
:1045C0004FEAD10110EB80054FEA810444EA907470
:1045D00044EB01046D1944EB0404521BA3414FF05A
:1045E000000348BF0A3200D530BD401C41F1000134
:1045F00030BD00002DE9F0411F4604460326016846
:10460000072A01F4006004DB08B116A505E016A531
:1046100003E008B115A500E015A521F01000206009
:10462000A069C01EA0610FB1401EA0612046FFF727
:1046300015F94FB1D4E9012138469047206A401C52
:104640002062C01C206206E0206AFAE7D4E901215A
:1046500015F8010B9047761EF8D22046FFF714F9A3
:10466000BDE8F0814E414E006E616E00494E46003D
:10467000696E660010B5436913B1AFF3008001E0C5
:10468000FFF798FE012010BD128800F124018284FA
:104690000022C2840122EDE711684FF0FF32E9E702
:1046A0002DE9F047814616468AB0324878440DC855
:1046B0008DE80D002F487844801C03AC0DC884E8B9
:1046C0000D0041F69B303722014491FBF2F0A0F13E
:1046D000800502FB10141B3C02D56442012000E05F
:1046E0000020DFF890A080460027FA44AAF1BA0A19
:1046F0000DE0E00709D03246684607EB47010AEBB8
:10470000810100F050FB8DE8070064107F1C002C35
:10471000EFD1184F7F44A83F18E0E80714D007EB0B
:1047200004100DF1180A90E80E008AE80E00C06827
:10473000F04201D198190890324606A903A800F06A
:1047400032FB03AB83E807006D10641C002DE4D13D
:1047500032466946B8F1000F03A802D000F00FFB03
:1047600001E000F020FBC9E90001C9F808200AB007
:10477000BDE8F0870C0B000070B516460C460546E8
:10478000FFF752FB036893F80101012806D0FF2CC4
:104790000FD8185D68B101202C7070BDD3F80701E7
:1047A0003246214603442846BDE8704003F2071311
:1047B00018474FF0FF3070BD70477546FFF7CCFECD
:1047C000AE4605006946534620F00700854618B0FE
:1047D00020B5FEF7B5FABDE820404FF000064FF0D7
:1047E00000074FF000084FF0000B21F00701AC4626
:1047F000ACE8C009ACE8C009ACE8C009ACE8C00945
:104800008D4670470446AFF300802046FBF70BFD52
:104810004FF0013C50F8042B51F8043B9A4221D14F
:10482000A2EB0C03934313EACC1317D150F8042BDB
:1048300051F8043B9A4215D1A2EB0C03934313EABF
:10484000CC130BD150F8042B51F8043B9A4209D1F8
:10485000A2EB0C03934313EACC13DBD04FF0000020
:10486000704700BFD01A01BAB1FA81F101F0180106
:1048700022FA01F0CB40C1F12001DBB2C0B2C01A74
:104880002CFA01F3D11A914311EAC311E6D1704712
:1048900001491820ABBEFEE7260002005FEA400C8B
:1048A00008BF91F0000F4FEA8C234FEAC12243EA80
:1048B00051514FEA1C5018BF00F5F0404FEA30004C
:1048C00018BF41F000415FEA6C5C00F02980BCF148
:1048D000FF3F08BF40F080407047130C06BF120432
:1048E0004FF0100C4FF0000C130E04BF12020CF12D
:1048F000080C130F04BF12010CF1040C930F04BF3A
:1049000092000CF1020CD30F04BF52000CF1010C09
:1049100011464FF00002A0F11F00A0EB0C00704701
:1049200011F0004F08BF704731F000413FF4D5AFA0
:104930000B0C06BF09044FF0100C4FF0000C0B0ECF
:1049400004BF09020CF1080C0B0F04BF09010CF1A4
:10495000040C8B0F04BF89000CF1020CCB0F04BFB9
:1049600049000CF1010CCCF12003A0EB0C0022FA61
:1049700003F302FA0CF241EA030100F1010070476F
:1049800020F07F4C80EA030023F07F47ACEB070365
:1049900003F57C5300F0004003F1FF032DE980494B
:1049A0004FEA154B09B44FEA144325EA0B4E24EAAB
:1049B00003480FF2042606EB132749083E785FEA06
:1049C000320203FB0667C7F5000707FB06F64FEA4E
:1049D00054374FEAD64606F1020607FB066CCCF1C7
:1049E000005C4FEA1C472CEA074C07FB06F40CFB63
:1049F00006F504EB15464FEA961634BF00204FF03B
:104A000000404FEAD13706FB07FC4FEA1C4C0CFB79
:104A10000BF7D21B03FB0CF761EB07010CFB0EF746
:104A2000B0EB074072EB17420CFB08F734BFA2EB68
:104A30000742B2EB074261EB17414FEA0C444FEAE1
:104A4000910706FB07FC4FEA1C4C0CFB0BF7B0EB85
:104A5000C74072EB573203FB0CF734BFA2EBC742DF
:104A6000B2EBC74261EB57310CFB0EF7B0EBC7005E
:104A700072EB57720CFB08F734BFA2EBC702B2EB24
:104A8000C70261EB5771039F4FEA816141EA9211BE
:104A900004EBCC044FEAD1374FEA826206FB07FCF5
:104AA00042EA90124FEA80604FEA1C4C0CFB0BF775
:104AB000D21B03FB0CF761EB07010CFB0EF7B0EB0D
:104AC000074072EB17420CFB08F734BFA2EB07421A
:104AD000B2EB074261EB17414FEA8C554FEA910761
:104AE00004EB9C2406FB07FC4FEA1C4C0CFB0BF769
:104AF000B0EBC74072EB573203FB0CF734BFA2EBAD
:104B0000C742B2EBC74261EB57310CFB0EF7B0EB7B
:104B1000C70072EB57720CFB08F734BFA2EBC70259
:104B2000B2EBC70261EB577115EB4C254FEA81617F
:104B300041EA92114FEA82624FEAD13742EA90127B
:104B400006FB07FC44F100044FEA80604FEA1C4C6E
:104B50000CFB0BF7D21B03FB0CF761EB07010CFB03
:104B60000EF7B0EB074072EB17420CFB08F734BFAF
:104B7000A2EB0742B2EB074261EB174115EB1C15A4
:104B80004FEA813141EA92414FEA823242EA904251
:104B90004FEA80304FEA0C7644F1000448EA0343C0
:104BA0004EEA0B484FF0000EB2EB080C71EB030716
:104BB00024BF624639464EEB0E0E4FF0000B001834
:104BC000524149414BEB0B0BB2EB080C71EB030765
:104BD0007BF1000B24BF624639464EEB0E0E4FF0C0
:104BE000000B0018524149414BEB0B0BB2EB080C88
:104BF00071EB03077BF1000B24BF624639464EEB95
:104C00000E0E51EA020718BF46F0010616EB0E76AB
:104C100055F1000254F1000103D5BDE88901BDE85A
:104C20000088BDE88901B619BDE80048524141EB52
:104C30000101A3F10103704780807F7E7D7C7B7A38
:104C40007978777676757473727171706F6E6E6D38
:104C50006C6C6B6A6A6968686766666564646363DE
:104C600062616160605F5F5E5E5D5D5C5C5B5B5A64
:104C70005A595958585757565655555554545353D1
:104C800052525251515050504F4F4F4E4E4D4D4D2C
:104C90004C4C4C4B4B4B4A4A4A4949494848484777
:104CA00047474746464645454544444444434343B5
:104CB0004342424242414141002B26D4770021D059
:104CC0001CB54FEA370703B44FF010004FF0100146
:104CD0004FF000000FBC0BF1010BBDE81040BBF121
:104CE000010F08BF5FEA170722BF12F1010211F19D
:104CF00001014FF0004143F1000300F0004043EA9E
:104D000000007047F9D35708DAE746EA064613F180
:104D1000400F4FEA16461FDD13F1200FDFBF164389
:104D20000A46002120335B42C8D0C3F1200746EA7F
:104D3000064602FA07F74FEA164646EA0706C3F1A7
:104D4000200722FA03F201FA07F721FA03F14FF0E4
:104D5000000342EA0702B1E746EA020646EA0646CF
:104D60004FEA164646EA0106BCBF46EA0646360C3E
:104D70004FF000034FF000024FF000019EE72DE9D5
:104D8000C048934630B491E8380007C831EA400C77
:104D900048BF34EA430C03D5FFF7F2FDFFF78CFF61
:104DA000F0BCBDE800882DE9C048934630B491E8D6
:104DB000380007C810F0804F08BF13F0804F03D1B0
:104DC00000F005F8FFF778FFF0BCBDE8008820F0A0
:104DD0007F4780EA030023F07F4C07EB0C03A3F529
:104DE0007C5300F00040A3F1FE0392F0000F00F0AE
:104DF000B38095F0000F00F077802DE901494FEA6C
:104E000011404FEA144621EA004800FB06FC24EA60
:104E1000064708FB06F607FB08F800FB07F718EB48
:104E200006484CEB164C4FEA124B18EB07484FEA7A
:104E300015464CEB174022EA0B4E0BFB06FC25EA0D
:104E400006470EFB06F607FB0EFE0BFB07F71EEBF5
:104E5000064E4CEB164C4FF000061EEB074E4CEB8B
:104E6000174B18EB0B0840F1000018EB0E0B58EB3A
:104E7000000840F100008F1A4FF000013CBFC94309
:104E8000661B14BFB5EB040C00213CBFC943F61BE5
:104E90004FEA17444EEA8E0E27EA04454FEA1C47B4
:104EA00004FB07622CEA074C05FB07F70CFB05F631
:104EB00004FB0CFC16EB074642EB174216EB0C46C4
:104EC00042EB1C421BEB060658EB0202414146EA4C
:104ED0009E0601D5BDE80189B619524141EB010199
:104EE000A3F10103BDE801894FEA14454FEA1147D8
:104EF00024EA054621EA074C05FB07F406FB07F701
:104F00000CFB06F105FB0CFC11EB074144EB1744CD
:104F10004FEA124711EB0C4144EB1C4422EA074CC8
:104F200005FB07F206FB07F70CFB06F605FB0CFC7E
:104F300016EB074642EB174216EB0C4642EB1C45BC
:104F40006A1854F1000148BF7047B619524141EB4D
:104F50000101A3F10103704795F0000F37D04FEA2C
:104F600011424FEA144721EA024624EA074C02FBA9
:104F700007F106FB07F70CFB06F402FB0CFC14EB35
:104F8000074441EB17414FEA154714EB0C4441EB42
:104F90001C4125EA074C02FB07F506FB07F70CFB53
:104FA00006F602FB0CFC16EB074645EB174516EB25
:104FB0000C4645EB1C42121951F1000148BF7047E5
:104FC000B619524141EB0101A3F1010370474FEAC9
:104FD00014454FEA114724EA054621EA074C05FB30
:104FE00007F106FB07F70CFB06F24FF0000605FB86
:104FF0000CFC12EB074241EB174112EB0C4251EB58
:105000001C4148BF7047921841EB0101A3F1010315
:105010007047490050EAC12018BF04204A0D18BF4C
:1050200040F0010040F2FF72B2EB515F08BF40F068
:105030000200012808BF0520704730380A2801D235
:10504000012070470020704710B500290AD0087869
:10505000002807D005487844FFF7DAFB002801D084
:10506000002010BD0248784410BD00009E010000E1
:105070009601000010B500290AD00878002807D052
:1050800005487844FFF7C4FB002801D0002010BD7C
:105090000248784410BD0000820200007A0200003D
:1050A000FFF720B84D5154430000000004000000F9
:1050B0000000000000000000000000003C000100B3
:1050C0004D51545700000000000000000000000097
:1050D00000000000000000000000000000000000D0
:1050E00000000000000000000000000000000000C0
:1050F00000000000000000000000000030313233EA
:1051000034353637383941424344454640305800FB
:10511000303132333435363738396162636465662D
:105120004030780004000008000000000000000289
:10513000000100001000000000000000000000005E
:1051400002400000000000A0000000000540000038
:10515000000000C8000000000C4000000000409C5F
:1051600000000000194000000020BCBE000000004C
:1051700034400000BFC91B8E00000004B540000091
:10518000504BCFD06607E2CF010000006C41000019
:105190003E8251AADFEEA73401000000D942000090
:1051A000DCB5A0E23A301F97FFFFFFFFB4450000D7
:1051B000FD25A0C8E9A3C14FFFFFFFFFFF3F00008F
:1051C0000000008000000000FF3F000000000080A1
:1051D00000000000205300080000002038000000FC
:1051E000280100085853000838000020600700001C
:1051F000440100081001000043000000F8FFFFFF19
:1052000000404040404040404040414141414140D9
:10521000404040404040404040404040404040408E
:10522000400502020202020202020202020202021D
:105230000220202020202020202020020202020222
:10524000020290909090909010101010101010107A
:105250001010101010101010101010100202020286
:1052600002028888888888880808080808080808CA
:1052700008080808080808080808080802020202C6
:1052800040000000000000000000000000000000DE
:10529000000000000000000000000000000000000E
:1052A00000000000000000000000000000000000FE
:1052B00000000000000000000000000000000000EE
:1052C00000000000000000000000000000000000DE
:1052D00000000000000000000000000000000000CE
:1052E00000000000000000000000000000000000BE
:1052F00000000000000000000000000000000000AE
:10530000000000001C00000043000000F8FFFFFF49
:105310000C0000000E0000000F0000002E00000036
:105320000000150001000000000000000000000067
:105330000102030401020304060708090204060827
:1053400000A24A0400000000000000000102030463
:08535000060708090000000037
:04000005080000ED02
:00000001FF
